:020000040000FA
:02000000FE2FD1
:100F7A008316031386010F30F0007008F600F5019E
:100F8A00760883120313860075080319D12F760891
:100F9A00F0000310700CD42F7608F0007007F100EF
:100FAA007108F6000230F2000430F100BA30F000A5
:100FBA00F00BDD2FF10BDD2FF20BDD2F0000760891
:100FCA00031DC52F7508031DEC2F0130ED2F0030CE
:100FDA00F0007008F5007508031DF52F0F30F62F85
:100FEA00F030F3000030F4007308F0007008F600E7
:060FFA00C52F8301BD2F8D
:02400E006ADE68
:00000001FF
