:020000040000FA
:10000000EF2F00308A000408840A82070034493444
:1000100043344534493420344D34693463347234C4
:080020006F3420342034003459
:100A9A00063400341A342C343E34FA00F801F901D1
:100AAA0078087A0784000120003A031908007808B8
:100ABA007A078400012097260130F8070318F90AFB
:100ACA000030F907552DF7000130F40083120313A3
:100ADA002C080739013E732D0310F40DFF3E031D48
:100AEA00712D7408FF3AF5002A08840083172B1C1D
:100AFA0083137508800577082D270130F4008312C7
:100B0A0003132C0CF500F50C750C0739013E8F2DDB
:100B1A000310F40DFF3E031D8D2D7408F6002A08FC
:100B2A00840083172B1C8313760880040B30F5008E
:100B3A006230F400F40B9F2DF50B9F2D000001305D
:100B4A00F400831203132C0CF500F50C750C07390D
:100B5A00013EB12D0310F40DFF3E031DAF2D7408A5
:100B6A00FF3AF6002A08840083172B1C83137608A1
:100B7A008005080024308400831203132F0883138E
:100B8A008000840A30088000840A31088000840AC0
:100B9A0032088000840A33088000783084002408F0
:100BAA008000840A25088000840A26088000840AB6
:100BBA0027088000840A280880001A260030682541
:100BCA000130682508306825003068250130522533
:100BDA000C30682500306825413083120313A200C7
:100BEA002208A90029089726823083120313A3003A
:100BFA00DD30A200A20BFF2DA30BFF2D0000013058
:100C0A0083120313A2002208A90751302902031CE8
:100C1A00F72D823083120313A300DD30A200A20B4A
:100C2A00142EA30B142E0000E32D2A30840078081A
:100C3A0083138000840A79088000840A7A08800075
:100C4A00840A7B088000840A7C08800000308312B2
:100C5A0003132B06031D332E05302A06031D392ED6
:100C6A008316031385014C2E00302B06031D3F2EDD
:100C7A0006302A060319492E00302B06031D472E7B
:100C8A0006302A06031D0800831603138601343032
:100C9A0083120313A100F130A000A00B522EA10B66
:100CAA00522E0000033068250D3083120313A10071
:100CBA00FB30A000A00B5F2EA10B5F2E00000330BB
:100CCA0068252A3083120313A1008D30A000A00BDF
:100CDA006C2EA10B6C2E00000330682502306825AB
:100CEA0002306825083068250030682506306825F6
:100CFA00083083120313A0002008FD007D157D082B
:100D0A00A00004300310A00CFF3E031D872E20080C
:100D1A000F3968257D080F396825003068250130AC
:100D2A0068250800F7000130F400831203132C0829
:100D3A000739013EA22E0310F40DFF3E031DA02E1B
:100D4A007408F5002A08840083172B1C831375087E
:100D5A0080047708F40004300310F40CFF3E031DEE
:100D6A00B12E74080F392D270130F40083120313B2
:100D7A002C0CF500F50C750C0739013EC62E031034
:100D8A00F40DFF3E031DC42E7408F6002A088400E1
:100D9A0083172B1C8313760880041A30F400F40B93
:100DAA00D42E00000130F400831203132C0CF5003A
:100DBA00F50C750C0739013EE42E0310F40DFF3EC5
:100DCA00031DE22E7408FF3AF6002A0884008317EE
:100DDA002B1C83137608800577080F392D270130DD
:100DEA00F400831203132C0CF500F50C750C07396B
:100DFA00013E012F0310F40DFF3E031DFF2E740860
:100E0A00F6002A08840083172B1C831376088004B3
:100E1A001A30F400F40B0F2F00000130F400831293
:100E2A0003132C0CF500F50C750C0739013E1F2F26
:100E3A000310F40DFF3E031D1D2F7408FF3AF60040
:100E4A002A08840083172B1C831376088005080060
:100E5A00F300731C472F0130F000831203132D088F
:100E6A000739013E3A2F0310F00DFF3E031D382FBC
:100E7A007008F1002A08840083172B1C8313710859
:100E8A0080045E2F0130F000831203132D08073906
:100E9A00013E512F0310F00DFF3E031D4F2F700826
:100EAA00FF3AF1002A08840083172B1C8313710868
:100EBA008005F31C782F0130F0002D0CF100F10CA5
:100ECA00710C0739013E6B2F0310F00DFF3E031D15
:100EDA00692F7008F2002A08840083172B1C8313D9
:100EEA0072088004902F0130F0002D0CF100F10CF3
:100EFA00710C0739013E832F0310F00DFF3E031DCD
:100F0A00812F7008FF3AF2002A08840083172B1CED
:100F1A00831372088005731DA72F0130F0002E0875
:100F2A000739013E9A2F0310F00DFF3E031D982F3B
:100F3A007008F1002A08840083172B1C8313710898
:100F4A008004BC2F0130F0002E080739013EAF2F74
:100F5A000310F00DFF3E031DAD2F7008FF3AF1009C
:100F6A002A08840083172B1C831371088005F31D3C
:100F7A00D62F0130F0002E0CF100F10C710C07395C
:100F8A00013EC92F0310F00DFF3E031DC72F700845
:100F9A00F2002A08840083172B1C8313720880042A
:100FAA0008000130F0002E0CF100F10C710C073929
:100FBA00013EE12F0310F00DFF3E031DDF2F7008E5
:100FCA00FF3AF2002A08840083172B1C8313720845
:100FDA00800508004D25AF004E25B0004F25B10011
:100FEA005025B2005125B300AA01AB01AC01AD01F5
:060FFA00AE018301BF2DD2
:00000001FF
