:020000040000FA
:10000000FE2F00308A000408840A820700343F343F
:1000100006345B344F3466346D347D3407347F34BA
:0E0020006F3477347C3439345E347934713483
:100DCA00831603138501860183120313A501A30168
:100DDA00A401831203132508102701308312031379
:100DEA00A3070318A40A0030A4072408803AFF00C6
:100DFA0080307F02031D032F0A302302031CEE2ECC
:100E0A0063308312031325060319EB2E0130FC000D
:100E1A007C08A507EC2E83120313A2000A30F00007
:100E2A000030F1002208F900FA017908F2007A0884
:100E3A00F3005A277008FB007B0883120313A000F3
:100E4A000A30F0000030F1002208F900FA017908AE
:100E5A00F2007A08F300A5277008FB007B088312CA
:100E6A000313A100051485102008013E8400012007
:100E7A0086002130FA007630F900F90B422FFA0B7E
:100E8A00422F000083120313051085142108013E26
:100E9A008400012086002130FA007630F900F90B2F
:100EAA00542FFA0B542F00000800F601F31F642F89
:100EBA00F209F309F20A0319F30AF601F60AF11F15
:100ECA006B2FF009F109F00A0319F10A700871048D
:100EDA000319982FF501F50AF11B7F2F0130031032
:100EEA00F00DF10DFF3E031D742F0130F40074085C
:100EFA00F507712F71087302031D852F700872029E
:100F0A00031C8D2F7008F2027108031CF303F3020D
:100F1A0001300310F10CF00CFF3E031D8E2F01303F
:100F2A00F502031D7F2F76080319A02FF209F30992
:100F3A00F20A0319F30A7308F1007208F0000800B4
:100F4A00F601F11FAF2FF009F109F00A0319F10AAE
:100F5A00F601F60AF31FBA2FF209F309F20A031986
:100F6A00F30A0130F4007408F606F701F801700874
:100F7A0071040319F12FF501F50AF11BD02F013085
:100F8A000310F00DF10DFF3E031DC52F0130F400D3
:100F9A007408F507C22F01300310F70DF80DFF3E54
:100FAA00031DD12F71087302031DDD2F7008720211
:100FBA00031CE62F7008F2027108031CF303F30204
:100FCA00771401300310F10CF00CFF3E031DE72FDC
:100FDA000130F502031DD02F76080319F92FF709FE
:100FEA00F809F70A0319F80A7808F1007708F000F7
:060FFA0008008301E52E52
:00000001FF
