:020000040000FA
:10000000EE2F00308A000408840A8207003443344B
:100010006F346E347434613464346F347234203429
:1000200030342034613420343134303430340034CE
:0C003000203420342034203420340034EC
:10055C00063400341A342C343E34FA00F801F90114
:10056C0078087A0784000120003A031908007808FB
:10057C007A0784000120A5250130F8070318F90A31
:10058C000030F907B62AFB00F901FA0179087B075C
:10059C00F800780884008313000803190800790810
:1005AC007B07F800780884000008A5250130F907BE
:1005BC000318FA0A0030FA07CC2A83120313A90095
:1005CC00A51FF82A2D30FD00290884007D0883130F
:1005DC0080000130FD007D08A907A409A509A40A23
:1005EC000319A50A2508F9002408F8002708FB00C0
:1005FC002608FA002908522408000130FB000030BC
:10060C00FC000A30F0000030F1007A08F3007908A1
:10061C00F200F9237108803AFF0080307F02031D3D
:10062C00192B01307002031C2F2B0A30F000003004
:10063C00F1007A08F3007908F200F9237108FA0046
:10064C007008F9000130FB070318FC0A0030FC07A6
:10065C00072B7C08FA007B08F9000800700871046D
:10066C000319612BF501F50AF11B482B013003101E
:10067C00F00DF10DFF3E031D3D2B0130F40074080D
:10068C00F5073A2B71087302031D4E2B700872028A
:10069C00031C562B7008F2027108031CF303F302BF
:1006AC0001300310F10CF00CFF3E031D572B0130F1
:1006BC00F502031D482B7308F1007208F0000800C6
:1006CC00F501F6017008710403199D2BF701F70A67
:1006DC00F11B7C2B01300310F00DF10DFF3E031DBF
:1006EC00712B0130F4007408F7076E2B01300310E6
:1006FC00F50DF60DFF3E031D7D2B71087302031DD6
:10070C00892B70087202031C922B7008F20271087C
:10071C00031CF303F302751401300310F10CF00CFD
:10072C00FF3E031D932B0130F702031D7C2B760833
:10073C00F1007508F0000800F7000130F400831296
:10074C0003133F080739013EAD2B0310F40DFF3E98
:10075C00031DAB2B7408FF3AF5003D08840083178A
:10076C003E1C83137508800577083B260130F40086
:10077C00831203133F0CF500F50C750C0739013E81
:10078C00C92B0310F40DFF3E031DC72B7408F60094
:10079C003D08840083173E1C8313760880040B30BD
:1007AC00F5006230F400F40BD92BF50BD92B0000BB
:1007BC000130F400831203133F0CF500F50C750C9B
:1007CC000739013EEB2B0310F40DFF3E031DE92B03
:1007DC007408FF3AF6003D08840083173E1C83130F
:1007EC00760880050800F601F11F032CF009F109C9
:1007FC00F00A0319F10AF601F60AF31F0E2CF2099E
:10080C00F309F20A0319F30A0130F4007408F6062E
:10081C00F701F801700871040319452CF501F50A6C
:10082C00F11B242C01300310F00DF10DFF3E031DC4
:10083C00192C0130F4007408F507162C0130031044
:10084C00F70DF80DFF3E031D252C71087302031DD7
:10085C00312C70087202031C3A2C7008F2027108D9
:10086C00031CF303F302771401300310F10CF00CAA
:10087C00FF3E031D3B2C0130F502031D242C760892
:10088C0003194D2CF709F809F70A0319F80A780827
:10089C00F1007708F000080083120313A300790815
:1008AC00A1007808A0007B08F1007A08F00021086C
:1008BC00F3002008F2006623710883120313A100D1
:1008CC007008A0000130FC007C08A307200821045C
:1008DC00031D592C23088400831380010130A302CB
:1008EC007B08F1007A08F0007908F3007808F20030
:1008FC0034237008FC007C0883120313A2007B08CD
:10090C00F1007A08F0007908F3007808F200662309
:10091C007108F9007008F8000A30831203132202E0
:10092C00031C9C2C0730FC007C08A2073030FC0018
:10093C007C08A2072208FC00230884007C0883138F
:10094C0080000130A30278087904031D762C013055
:10095C00FC007C08A30708003630840083120313C4
:10096C00420883138000840A43088000840A4408E8
:10097C008000840A45088000840A4608800078308C
:10098C00840036088000840A37088000840A3808FE
:10099C008000840A39088000840A3A0880002825DF
:1009AC00033083160313860081130030A223013019
:1009BC00A2230830A2230030A2230130B3228312D9
:1009CC000313BB01BC01831203134711061847150F
:1009DC008312031347108618471483120313C71985
:1009EC004719082D0130BB070318BC0A0030BC079F
:1009FC000A30B5003508AA003C08AC003B08AB0037
:100A0C000130FD2683120313C71847181D2DFF3024
:100A1C00BB070318BC0AFF30BC070A30B500350809
:100A2C00AA003C08AC003B08AB000130FD26831249
:100A3C000313C7114719C71583120313C71047189F
:100A4C00C714E92C3D308400780883138000840A95
:100A5C0079088000840A7A088000840A7B08800068
:100A6C00840A7C0880000030831203133E06031DA9
:100A7C00412D05303D06031D472D831603138501BB
:100A8C005A2D00303E06031D4D2D06303D06031930
:100A9C00572D00303E06031D552D06303D06031D17
:100AAC000800831603138601343083120313A1004C
:100ABC00F130A000A00B602DA10B602D00000330C5
:100ACC00A2230D3083120313A100FB30A000A00B56
:100ADC006D2DA10B6D2D00000330A2232A30831243
:100AEC000313A1008D30A000A00B7A2DA10B7A2D41
:100AFC0000000330A2230230A2230230A2230830CC
:100B0C00A2230030A2230630A22308308312031341
:100B1C00A0002008FD007D157D08A0000430031006
:100B2C00A00CFF3E031D952D20080F39A2237D0834
:100B3C000F39A2230030A2230130A2230800F700B2
:100B4C000130F400831203133F080739013EB02D26
:100B5C000310F40DFF3E031DAE2D7408F5003D0887
:100B6C00840083173E1C8313750880047708F400F7
:100B7C0004300310F40CFF3E031DBF2D74080F3915
:100B8C003B260130F400831203133F0CF500F50CE7
:100B9C00750C0739013ED42D0310F40DFF3E031DD7
:100BAC00D22D7408F6003D08840083173E1C831375
:100BBC00760880041A30F400F40BE22D00000130AA
:100BCC00F400831203133F0CF500F50C750C073978
:100BDC00013EF22D0310F40DFF3E031DF02D7408A1
:100BEC00FF3AF6003D08840083173E1C83137608F9
:100BFC00800577080F393B260130F400831203136C
:100C0C003F0CF500F50C750C0739013E0F2E031047
:100C1C00F40DFF3E031D0D2E7408F6003D088400F4
:100C2C0083173E1C8313760880041A30F400F40BEF
:100C3C001D2E00000130F400831203133F0CF5004D
:100C4C00F50C750C0739013E2D2E0310F40DFF3EEB
:100C5C00031D2B2E7408FF3AF6003D088400831701
:100C6C003E1C8313760880050800F300731C552E78
:100C7C000130F0008312031340080739013E482E5F
:100C8C000310F00DFF3E031D462E7008F1003D08C9
:100C9C00840083173E1C8313710880046C2E013072
:100CAC00F0008312031340080739013E5F2E031036
:100CBC00F00DFF3E031D5D2E7008FF3AF1003D085C
:100CCC00840083173E1C831371088005F31C862E49
:100CDC000130F000400CF100F10C710C0739013EB1
:100CEC00792E0310F00DFF3E031D772E7008F200D5
:100CFC003D08840083173E1C8313720880049E2ECB
:100D0C000130F000400CF100F10C710C0739013E80
:100D1C00912E0310F00DFF3E031D8F2E7008FF3A2D
:100D2C00F2003D08840083173E1C83137208800573
:100D3C00731DB52E0130F00041080739013EA82E75
:100D4C000310F00DFF3E031DA62E7008F1003D08A8
:100D5C00840083173E1C831371088004CA2E013053
:100D6C00F00041080739013EBD2E0310F00DFF3E87
:100D7C00031DBB2E7008FF3AF1003D088400831759
:100D8C003E1C831371088005F31DE42E0130F00026
:100D9C00410CF100F10C710C0739013ED72E0310F8
:100DAC00F00DFF3E031DD52E7008F2003D088400A7
:100DBC0083173E1C83137208800408000130F00076
:100DCC00410CF100F10C710C0739013EEF2E0310B0
:100DDC00F00DFF3E031DED2E7008FF3AF2003D08AA
:100DEC00840083173E1C831372088005080083124D
:100DFC000313B4003408031D142F2A087C3EAD00E5
:100E0C0004300310AD0CFF3E031D072F2D080F39C6
:100E1C00A223831203132A087C3E512F3403031D93
:100E2C00282F2A08BC3EAD0004300310AD0CFF3E49
:100E3C00031D1B2F2D080F39A223831203132A081D
:100E4C00BC3E512F02303406031D3D2F2A08903E24
:100E5C00AD0004300310AD0CFF3E031D302F2D08E8
:100E6C000F39A223831203132A08903E512F03300B
:100E7C003406031D532F2A08D03EAD000430031056
:100E8C00AD0CFF3E031D452F2D080F39A2238312F5
:100E9C0003132A08D03E0F39A2231230B322831237
:100EAC0003132C08A5002B08A4000A30A600003060
:100EBC00A7002E30E322831203132C08803AFF0084
:100ECC0080307F02031D6C2F0A302B02031C842FF1
:100EDC00831203132C08FA002B08F900032379085A
:100EEC00FF3E83120313B2007A080318013EFF3E43
:100EFC00B30032082A02AD002D08AA008312031396
:100F0C00AC1F982F2C08FA002B08F90003237A0841
:100F1C0083120313B3007908B20032082A02AD0021
:100F2C002D08AA003408031DAC2F2A08803EAD0002
:100F3C0004300310AD0CFF3E031D9F2F2D080F39FD
:100F4C00A223831203132A08803EE92F3403031DC6
:100F5C00C02F2A08C03EAD0004300310AD0CFF3E7C
:100F6C00031DB32F2D080F39A223831203132A0854
:100F7C00C03EE92F02303406031DD52F2A08943EBB
:100F8C00AD0004300310AD0CFF3E031DC82F2D081F
:100F9C000F39A223831203132A08943EE92F03303E
:100FAC003406031DEB2F2A08D43EAD000430031089
:100FBC00AD0CFF3E031DDD2F2D080F39A22383122C
:100FCC0003132A08D43E0F39A2232E30C92208005D
:100FDC00AE22C200AF22C300B022C400B122C500B1
:100FEC00B222C600BD01BE01BF01C001C101C701D3
:040FFC008301B22C8F
:00000001FF
