:020000040000FA
:020000000A28CC
:10000800FE00030EF0000A08F100222D0B288313CE
:100018004130FD000430FE00AF30FF002030840086
:1000280037255830840069304225FA01FB018301E5
:100038001D288316031386018312031386010130DA
:10004800831603138500831203138501513084003E
:10005800200883138000840A21088000840A22086B
:100068008000840A23088000840A2408800007305E
:100078009F008B170B17831603138C14831203131B
:1000880092018C1091014130840051088000840A4B
:1000980052088000840A53088000840A54088000AB
:1000A800840A55088000BC2208303B2300303B23DB
:1000B80039300825023083120313CB004530CA00BB
:1000C800A930C900C90B6628CA0B6628CB0B66285D
:1000D800000000303B2301303B23F32808303B234A
:1000E80000303B231F3008250C303B2300303B23D6
:1000F80011300825F3280A30F2000030F3006408B4
:10010800F5006308F400DB237208303E8312031302
:10011800C9004908BA000A30F2000030F300640848
:10012800F5006308F4004F247208303E831203136D
:10013800C9004908BB000A30F2000030F300620829
:10014800F5006108F400DB237208303E83120313C4
:10015800C9004908BD00DF30C9004908BE000A309F
:10016800F2000030F3006008F5005F08F400DB23BC
:100178007208303E83120313C9004908AC000A30E4
:10018800F2000030F3006008F5005F08F4004F2427
:100198007208303E83120313C9004908AD000A30C3
:1001A800F2000030F3005E08F5005D08F400DB2380
:1001B8007208303E83120313C9004908AF000030AB
:1001C8003B2301303B2308303B2300303B233330B3
:1001D800D0240C303B2300303B232530D02406307C
:1001E80083120313CB001330CA00AD30C900C90B0A
:1001F800FB28CA0BFB28CB0BFB280000EE2481242C
:10020800730883120313D7007208D60056085704E0
:10021800031972281724730883120313E000720865
:10022800DF001724730883120313DE007208DD0051
:100238001724730883120313E4007208E3001724D9
:10024800730883120313E2007208E100172473088D
:1002580083120313E8007208E7005D085F07C9000E
:100268005E0803185E0A6007CA0063084907CB00E6
:1002780064080318640A4A07CC0061084B07CD00DC
:1002880062080318620A4C07CE00FF304D05CF0004
:1002980000304E05D00068085006031D5529670830
:1002A8004F0603197F2808303B2300303B230130D9
:1002B80008250C303B2300303B232C300825F3283D
:1002C800F500751C7E290130F200831203135B08C8
:1002D8000739013E71290310F20DFF3E031D6F29F6
:1002E8007208F300580884008317591C8313730895
:1002F800800495290130F200831203135B08073943
:10030800013E88290310F20DFF3E031D862972085D
:10031800FF3AF300580884008317591C83137308A5
:100328008005F51CAF290130F2005B0CF300F30CDB
:10033800730C0739013EA2290310F20DFF3E031D7D
:10034800A0297208F400580884008317591C8313E5
:1003580074088004C7290130F2005B0CF300F30C29
:10036800730C0739013EBA290310F20DFF3E031D35
:10037800B8297208FF3AF400580884008317591CFA
:10038800831374088005751DDE290130F2005C08AE
:100398000739013ED1290310F20DFF3E031DCF2975
:1003A8007208F300580884008317591C83137308D4
:1003B8008004F3290130F2005C080739013EE62980
:1003C8000310F20DFF3E031DE4297208FF3AF30003
:1003D800580884008317591C831373088005F51D7A
:1003E8000D2A0130F2005C0CF300F30C730C073992
:1003F800013E002A0310F20DFF3E031DFE2972087C
:10040800F400580884008317591C83137408800467
:1004180008000130F2005C0CF300F30C730C073990
:10042800013E182A0310F20DFF3E031D162A72081A
:10043800FF3AF400580884008317591C8313740882
:1004480080050800F9000130F600831203135A08EA
:100458000739013E312A0310F60DFF3E031D2F2AEE
:100468007608F700580884008317591C8313770807
:1004780080047908F60004300310F60CFF3E031DD3
:10048800402A76080F3964210130F60083120313DD
:100498005A0CF700F70C770C0739013E552A031060
:1004A800F60DFF3E031D532A7608F800580884000D
:1004B8008317591C8313780880041A30F600F60B4A
:1004C800632A00000130F600831203135A0CF70068
:1004D800F70C770C0739013E732A0310F60DFF3E1F
:1004E800031D712A7608FF3AF8005808840083171C
:1004F800591C83137808800579080F396421013065
:10050800F600831203135A0CF700F70C770C07391F
:10051800013E902A0310F60DFF3E031D8E2A760831
:10052800F800580884008317591C8313780880043E
:100538001A30F600F60B9E2A00000130F6008312EE
:1005480003135A0CF700F70C770C0739013EAE2A53
:100558000310F60DFF3E031DAC2A7608FF3AF8009B
:10056800580884008317591C8313780880050800ED
:100578005830840083120313410883138000840ACF
:1005880042088000840A43088000840A44088000E6
:10059800840A4508800000305906031DD52A053015
:1005A8005806031DDB2A831603138501EE2A003043
:1005B8005906031DE12A063058060319EB2A0030B4
:1005C8005906031DE92A06305806031D080083163C
:1005D80003138601343083120313C700F130C600B9
:1005E800C60BF42AC70BF42A000003303B230D3056
:1005F80083120313C700FB30C600C60B012BC70BC1
:10060800012B000003303B232A3083120313C70059
:100618008D30C600C60B0E2BC70B0E2B0000033007
:100628003B2302303B2302303B2308303B2300307E
:100638003B2306303B23083083120313C6004608C9
:10064800C80048154808C60004300310C60CFF3E11
:10065800031D292B46080F393B238312031348082F
:100668000F393B2300303B2301303B230800F900BE
:100678000130F600831203135A080739013E462B4E
:100688000310F60DFF3E031D442B7608FF3AF700D2
:10069800580884008317591C831377088005790844
:1006A80064210130F600831203135A0CF700F70C8B
:1006B800770C0739013E622B0310F60DFF3E031D30
:1006C800602B7608F800580884008317591C831398
:1006D800780880040B30F7006230F600F60B722BB6
:1006E800F70B722B00000130F600831203135A0C2B
:1006F800F700F70C770C0739013E842B0310F60D31
:10070800FF3E031D822B7608FF3AF8005808840044
:100718008317591C831378088005080003308A0062
:100728000408840A82070034433468346534633427
:100738006B34733475346D342034653472347234E8
:100748006F3472342134003450346C34653461347D
:1007580073346534203463346834653463346B34FB
:100768002E3400344E346F3420347234653473348C
:1007780070346F346E34733465342E34003450342E
:100788006C346534613473346534203477346134BF
:10079800693474342E3400344234693465346E3428
:1007A800763465346E34693464346F340034F70158
:1007B800F801720873040319122CF901F90AF31BE2
:1007C800F12B01300310F20DF30DFF3E031DE62B54
:1007D8000130F6007608F907E32B01300310F70D16
:1007E800F80DFF3E031DF22B73087502031DFE2B47
:1007F80072087402031C072C7208F4027308031CA5
:10080800F503F502771401300310F30CF20CFF3EE8
:10081800031D082C0130F902031DF12B7808F300A1
:100828007708F2000800F701F8018316031305158D
:1008380083120313E501E601051D202C9101121511
:100848000519242C121129301102031C3D2C6508AE
:10085800073CF400F40A0130F5000030F600372CAC
:100868000310F50DF60DF40B342C7508F704760813
:10087800F8040130E5070318E60A0030E6070030FF
:100888006602083003196502031C202C7808F3005F
:100898007708F20008007208730403197C2CF7012A
:1008A800F70AF31B632C01300310F20DF30DFF3E22
:1008B800031D582C0130F6007608F707552C7308ED
:1008C8007502031D692C72087402031C712C7208CE
:1008D800F4027308031CF503F50201300310F30C4E
:1008E800F20CFF3E031D722C0130F702031D632C2E
:1008F8007508F3007408F2000800FA01FB0183127E
:100908000313910112158C2C7A087B04031D8E2C7D
:10091800051D882C7A087B040319952CF201F30134
:1009280008009101050CF400740C0139F5007A08EF
:100938007B04031DA12C0130A22C00307505031D7A
:10094800962C7A087B04031D922C12110130F200B8
:100958000030F3000800063400341A342C343E34D6
:100968005234483420343D34203420342034303458
:1009780030342E3430342034253400345434653443
:100988006D34703420343D342034303430342E34D7
:10099800303420346334003483120313C400C2019A
:1009A800C30142084407C1004108840083130008BA
:1009B8000319080042084407C100410884000008E0
:1009C8002622013083120313C2070318C30A00301A
:1009D800C307D52C831603130511831203130511BE
:1009E8001830F3005F30F200F20BF82CF30BF82C00
:1009F8008312031305150630F200F20B012D0000D7
:100A0800831603130515080083120313C300C101DD
:100A1800C2014108430784009223003A03190800E1
:100A280041084307840092232622013083120313CE
:100A3800C1070318C20A0030C2070D2D8312031321
:100A48008C1C2C2D0130FA000030FB0012118C1088
:100A580071088A00700E8300FE0E7E0E09007E0863
:100A68008A007F08820033258000840A04087D06F6
:100A780003190034FF0A0319FE0A372D64008001A8
:0C0A8800840A0406031900340406432D00
:00000001FF
