:020000040000FA
:0400000007EF00F016
:10000800328201ED01F0EBEF00F03150D8A418D0A6
:100018008B808B9221C023F022C024F0000E266E24
:100028000A0E256E92EC00F0D89023362436010E85
:100038002324D96E000E2420DA6EDF50FF0A8A6E60
:100048003150D8B418D08B908B8221C023F022C0B5
:1000580024F0000E266E0A0E256E50EC00F0D890A3
:1000680023362436010E2324D96E000E2420DA6E9E
:10007800DF50FF0A8A6E010E2B6E000E2C6E315077
:100088002B5E000E2C5A2B502C10D8B402D0010E27
:1000980001D0000E316E1200000E286E26AE06D07A
:1000A800256C261ED8B0262A010E286E24AE06D04E
:1000B800236C241ED8B0242A010E281A000E2A6E9A
:1000C800000E296E25502610D8B41CD0010E276EBC
:1000D80004D0D89025362636272A26AEFAD7D890C7
:1000E80029362A362550235C26502458D8A005D016
:1000F8002550235E2650245A2980D890263225324E
:10010800272EEDD72850D8B404D0296C2A1ED8B091
:100118002A2A29C023F02AC024F01200000E286ED3
:1001280024AE06D0236C241ED8B0242A010E286ED3
:1001380026AE04D0256C261ED8B0262A25502610B7
:10014800D8B418D0010E276E04D0D890253626369C
:10015800272A26AEFAD72550235C26502458D8A043
:1001680004D02550235E2650245AD89026322532B2
:10017800272EF1D72850D8B404D0236C241ED8B029
:10018800242A23C023F024C024F01200000E936E0A
:10019800FC0E946E000E8A6E000E8B6E26EC01F03B
:1001A800214A222A640E21182210D8A404D0000E55
:1001B800226E000E216E060E306E130E2F6EAE0EDE
:1001C800E82EFED72F2EFCD7302EFAD7E9D72A0EE5
:1001D800F66E020EF76E000EF86E00EE01F010EEED
:1001E80022F00900F5CFEEFFE550E150FAE1316A5F
:1001F800329032920001CAEF00F00600D9CF2DF0FC
:10020800DACF2EF09EA007D09E908A0ECF6ED00E29
:10021800CE6E09EC00F02EC0DAFF2DC0D9FF329265
:100228001100FC006000DA00F2006600B600BE00B3
:10023800E000FE00F600EE003E009C007A009E0002
:100248008E005600010ECD6E9E908A0ECF6ED00E97
:0A025800CE6E9D80C00EF26E120003
:020000040020DA
:08000000FFFFFFFFFFFFFFFF00
:020000040030CA
:0E00000000051F1FFF8385FF0FC00FE00F409C
:00000001FF
